{
	"data": {
		"bytecode": {
			"linkReferences": {},
			"object": "608060405234801561001057600080fd5b506103c9806100206000396000f3fe608060405234801561001057600080fd5b506004361061007d5760003560e01c80632cb777a61161005b5780632cb777a6146100da57806384ea3606146100f8578063e62e063514610102578063f102a71d1461010c5761007d565b80631054217614610082578063138fe34e146100a0578063158be616146100bc575b600080fd5b61008a610116565b60405161009791906101e6565b60405180910390f35b6100ba60048036038101906100b59190610232565b61011c565b005b6100c4610126565b6040516100d1919061027b565b60405180910390f35b6100e2610139565b6040516100ef91906102af565b60405180910390f35b61010061013f565b005b61010a610179565b005b6101146101b3565b005b60005481565b8060008190555050565b600160009054906101000a900460ff1681565b60025481565b6001600081819054906101000a900460ff168092919061015e906102f9565b91906101000a81548160ff021916908360ff16021790555050565b6001600081819054906101000a900460ff168092919061019890610322565b91906101000a81548160ff021916908360ff16021790555050565b600260008154809291906101c69061034b565b9190505550565b6000819050919050565b6101e0816101cd565b82525050565b60006020820190506101fb60008301846101d7565b92915050565b600080fd5b61020f816101cd565b811461021a57600080fd5b50565b60008135905061022c81610206565b92915050565b60006020828403121561024857610247610201565b5b60006102568482850161021d565b91505092915050565b600060ff82169050919050565b6102758161025f565b82525050565b6000602082019050610290600083018461026c565b92915050565b6000819050919050565b6102a981610296565b82525050565b60006020820190506102c460008301846102a0565b92915050565b7f4e487b7100000000000000000000000000000000000000000000000000000000600052601160045260246000fd5b60006103048261025f565b915060ff8203610317576103166102ca565b5b600182019050919050565b600061032d8261025f565b9150600082036103405761033f6102ca565b5b600182039050919050565b600061035682610296565b91507f7fffffffffffffffffffffffffffffffffffffffffffffffffffffffffffffff8203610388576103876102ca565b5b60018201905091905056fea2646970667358221220fbd0c04f7eb1606a3d354ea2d2df3b3f60d04d3755bccfe049b92ee8787b946b64736f6c634300080e0033",
			"opcodes": "PUSH1 0x80 PUSH1 0x40 MSTORE CALLVALUE DUP1 ISZERO PUSH2 0x10 JUMPI PUSH1 0x0 DUP1 REVERT JUMPDEST POP PUSH2 0x3C9 DUP1 PUSH2 0x20 PUSH1 0x0 CODECOPY PUSH1 0x0 RETURN INVALID PUSH1 0x80 PUSH1 0x40 MSTORE CALLVALUE DUP1 ISZERO PUSH2 0x10 JUMPI PUSH1 0x0 DUP1 REVERT JUMPDEST POP PUSH1 0x4 CALLDATASIZE LT PUSH2 0x7D JUMPI PUSH1 0x0 CALLDATALOAD PUSH1 0xE0 SHR DUP1 PUSH4 0x2CB777A6 GT PUSH2 0x5B JUMPI DUP1 PUSH4 0x2CB777A6 EQ PUSH2 0xDA JUMPI DUP1 PUSH4 0x84EA3606 EQ PUSH2 0xF8 JUMPI DUP1 PUSH4 0xE62E0635 EQ PUSH2 0x102 JUMPI DUP1 PUSH4 0xF102A71D EQ PUSH2 0x10C JUMPI PUSH2 0x7D JUMP JUMPDEST DUP1 PUSH4 0x10542176 EQ PUSH2 0x82 JUMPI DUP1 PUSH4 0x138FE34E EQ PUSH2 0xA0 JUMPI DUP1 PUSH4 0x158BE616 EQ PUSH2 0xBC JUMPI JUMPDEST PUSH1 0x0 DUP1 REVERT JUMPDEST PUSH2 0x8A PUSH2 0x116 JUMP JUMPDEST PUSH1 0x40 MLOAD PUSH2 0x97 SWAP2 SWAP1 PUSH2 0x1E6 JUMP JUMPDEST PUSH1 0x40 MLOAD DUP1 SWAP2 SUB SWAP1 RETURN JUMPDEST PUSH2 0xBA PUSH1 0x4 DUP1 CALLDATASIZE SUB DUP2 ADD SWAP1 PUSH2 0xB5 SWAP2 SWAP1 PUSH2 0x232 JUMP JUMPDEST PUSH2 0x11C JUMP JUMPDEST STOP JUMPDEST PUSH2 0xC4 PUSH2 0x126 JUMP JUMPDEST PUSH1 0x40 MLOAD PUSH2 0xD1 SWAP2 SWAP1 PUSH2 0x27B JUMP JUMPDEST PUSH1 0x40 MLOAD DUP1 SWAP2 SUB SWAP1 RETURN JUMPDEST PUSH2 0xE2 PUSH2 0x139 JUMP JUMPDEST PUSH1 0x40 MLOAD PUSH2 0xEF SWAP2 SWAP1 PUSH2 0x2AF JUMP JUMPDEST PUSH1 0x40 MLOAD DUP1 SWAP2 SUB SWAP1 RETURN JUMPDEST PUSH2 0x100 PUSH2 0x13F JUMP JUMPDEST STOP JUMPDEST PUSH2 0x10A PUSH2 0x179 JUMP JUMPDEST STOP JUMPDEST PUSH2 0x114 PUSH2 0x1B3 JUMP JUMPDEST STOP JUMPDEST PUSH1 0x0 SLOAD DUP2 JUMP JUMPDEST DUP1 PUSH1 0x0 DUP2 SWAP1 SSTORE POP POP JUMP JUMPDEST PUSH1 0x1 PUSH1 0x0 SWAP1 SLOAD SWAP1 PUSH2 0x100 EXP SWAP1 DIV PUSH1 0xFF AND DUP2 JUMP JUMPDEST PUSH1 0x2 SLOAD DUP2 JUMP JUMPDEST PUSH1 0x1 PUSH1 0x0 DUP2 DUP2 SWAP1 SLOAD SWAP1 PUSH2 0x100 EXP SWAP1 DIV PUSH1 0xFF AND DUP1 SWAP3 SWAP2 SWAP1 PUSH2 0x15E SWAP1 PUSH2 0x2F9 JUMP JUMPDEST SWAP2 SWAP1 PUSH2 0x100 EXP DUP2 SLOAD DUP2 PUSH1 0xFF MUL NOT AND SWAP1 DUP4 PUSH1 0xFF AND MUL OR SWAP1 SSTORE POP POP JUMP JUMPDEST PUSH1 0x1 PUSH1 0x0 DUP2 DUP2 SWAP1 SLOAD SWAP1 PUSH2 0x100 EXP SWAP1 DIV PUSH1 0xFF AND DUP1 SWAP3 SWAP2 SWAP1 PUSH2 0x198 SWAP1 PUSH2 0x322 JUMP JUMPDEST SWAP2 SWAP1 PUSH2 0x100 EXP DUP2 SLOAD DUP2 PUSH1 0xFF MUL NOT AND SWAP1 DUP4 PUSH1 0xFF AND MUL OR SWAP1 SSTORE POP POP JUMP JUMPDEST PUSH1 0x2 PUSH1 0x0 DUP2 SLOAD DUP1 SWAP3 SWAP2 SWAP1 PUSH2 0x1C6 SWAP1 PUSH2 0x34B JUMP JUMPDEST SWAP2 SWAP1 POP SSTORE POP JUMP JUMPDEST PUSH1 0x0 DUP2 SWAP1 POP SWAP2 SWAP1 POP JUMP JUMPDEST PUSH2 0x1E0 DUP2 PUSH2 0x1CD JUMP JUMPDEST DUP3 MSTORE POP POP JUMP JUMPDEST PUSH1 0x0 PUSH1 0x20 DUP3 ADD SWAP1 POP PUSH2 0x1FB PUSH1 0x0 DUP4 ADD DUP5 PUSH2 0x1D7 JUMP JUMPDEST SWAP3 SWAP2 POP POP JUMP JUMPDEST PUSH1 0x0 DUP1 REVERT JUMPDEST PUSH2 0x20F DUP2 PUSH2 0x1CD JUMP JUMPDEST DUP2 EQ PUSH2 0x21A JUMPI PUSH1 0x0 DUP1 REVERT JUMPDEST POP JUMP JUMPDEST PUSH1 0x0 DUP2 CALLDATALOAD SWAP1 POP PUSH2 0x22C DUP2 PUSH2 0x206 JUMP JUMPDEST SWAP3 SWAP2 POP POP JUMP JUMPDEST PUSH1 0x0 PUSH1 0x20 DUP3 DUP5 SUB SLT ISZERO PUSH2 0x248 JUMPI PUSH2 0x247 PUSH2 0x201 JUMP JUMPDEST JUMPDEST PUSH1 0x0 PUSH2 0x256 DUP5 DUP3 DUP6 ADD PUSH2 0x21D JUMP JUMPDEST SWAP2 POP POP SWAP3 SWAP2 POP POP JUMP JUMPDEST PUSH1 0x0 PUSH1 0xFF DUP3 AND SWAP1 POP SWAP2 SWAP1 POP JUMP JUMPDEST PUSH2 0x275 DUP2 PUSH2 0x25F JUMP JUMPDEST DUP3 MSTORE POP POP JUMP JUMPDEST PUSH1 0x0 PUSH1 0x20 DUP3 ADD SWAP1 POP PUSH2 0x290 PUSH1 0x0 DUP4 ADD DUP5 PUSH2 0x26C JUMP JUMPDEST SWAP3 SWAP2 POP POP JUMP JUMPDEST PUSH1 0x0 DUP2 SWAP1 POP SWAP2 SWAP1 POP JUMP JUMPDEST PUSH2 0x2A9 DUP2 PUSH2 0x296 JUMP JUMPDEST DUP3 MSTORE POP POP JUMP JUMPDEST PUSH1 0x0 PUSH1 0x20 DUP3 ADD SWAP1 POP PUSH2 0x2C4 PUSH1 0x0 DUP4 ADD DUP5 PUSH2 0x2A0 JUMP JUMPDEST SWAP3 SWAP2 POP POP JUMP JUMPDEST PUSH32 0x4E487B7100000000000000000000000000000000000000000000000000000000 PUSH1 0x0 MSTORE PUSH1 0x11 PUSH1 0x4 MSTORE PUSH1 0x24 PUSH1 0x0 REVERT JUMPDEST PUSH1 0x0 PUSH2 0x304 DUP3 PUSH2 0x25F JUMP JUMPDEST SWAP2 POP PUSH1 0xFF DUP3 SUB PUSH2 0x317 JUMPI PUSH2 0x316 PUSH2 0x2CA JUMP JUMPDEST JUMPDEST PUSH1 0x1 DUP3 ADD SWAP1 POP SWAP2 SWAP1 POP JUMP JUMPDEST PUSH1 0x0 PUSH2 0x32D DUP3 PUSH2 0x25F JUMP JUMPDEST SWAP2 POP PUSH1 0x0 DUP3 SUB PUSH2 0x340 JUMPI PUSH2 0x33F PUSH2 0x2CA JUMP JUMPDEST JUMPDEST PUSH1 0x1 DUP3 SUB SWAP1 POP SWAP2 SWAP1 POP JUMP JUMPDEST PUSH1 0x0 PUSH2 0x356 DUP3 PUSH2 0x296 JUMP JUMPDEST SWAP2 POP PUSH32 0x7FFFFFFFFFFFFFFFFFFFFFFFFFFFFFFFFFFFFFFFFFFFFFFFFFFFFFFFFFFFFFFF DUP3 SUB PUSH2 0x388 JUMPI PUSH2 0x387 PUSH2 0x2CA JUMP JUMPDEST JUMPDEST PUSH1 0x1 DUP3 ADD SWAP1 POP SWAP2 SWAP1 POP JUMP INVALID LOG2 PUSH5 0x6970667358 0x22 SLT KECCAK256 0xFB 0xD0 0xC0 0x4F PUSH31 0xB1606A3D354EA2D2DF3B3F60D04D3755BCCFE049B92EE8787B946B64736F6C PUSH4 0x4300080E STOP CALLER "
		},
		"gasEstimates": {
			"creation": {
				"codeDepositCost": "193800",
				"executionCost": "238",
				"totalCost": "194038"
			},
			"external": {
				"MyUint()": "2430",
				"MyUint8()": "2516",
				"decrementUint8()": "26743",
				"incrementInt()": "24567",
				"incrementUint8()": "26721",
				"myInt()": "2429",
				"setValueInUint256(uint256)": "22543"
			}
		},
		"methodIdentifiers": {
			"MyUint()": "10542176",
			"MyUint8()": "158be616",
			"decrementUint8()": "e62e0635",
			"incrementInt()": "f102a71d",
			"incrementUint8()": "84ea3606",
			"myInt()": "2cb777a6",
			"setValueInUint256(uint256)": "138fe34e"
		}
	},
	"abi": [
		{
			"inputs": [],
			"name": "MyUint",
			"outputs": [
				{
					"internalType": "uint256",
					"name": "",
					"type": "uint256"
				}
			],
			"stateMutability": "view",
			"type": "function"
		},
		{
			"inputs": [],
			"name": "MyUint8",
			"outputs": [
				{
					"internalType": "uint8",
					"name": "",
					"type": "uint8"
				}
			],
			"stateMutability": "view",
			"type": "function"
		},
		{
			"inputs": [],
			"name": "decrementUint8",
			"outputs": [],
			"stateMutability": "nonpayable",
			"type": "function"
		},
		{
			"inputs": [],
			"name": "incrementInt",
			"outputs": [],
			"stateMutability": "nonpayable",
			"type": "function"
		},
		{
			"inputs": [],
			"name": "incrementUint8",
			"outputs": [],
			"stateMutability": "nonpayable",
			"type": "function"
		},
		{
			"inputs": [],
			"name": "myInt",
			"outputs": [
				{
					"internalType": "int256",
					"name": "",
					"type": "int256"
				}
			],
			"stateMutability": "view",
			"type": "function"
		},
		{
			"inputs": [
				{
					"internalType": "uint256",
					"name": "_myUint",
					"type": "uint256"
				}
			],
			"name": "setValueInUint256",
			"outputs": [],
			"stateMutability": "nonpayable",
			"type": "function"
		}
	]
}